{
  "_format": "hh-sol-artifact-1",
  "contractName": "MonadCrushNFT",
  "sourceName": "contracts/MonadCrushNFT.sol",
  "abi": [
    {
      "inputs": [],
      "stateMutability": "nonpayable",
      "type": "constructor"
    },
    {
      "inputs": [
        {
          "internalType": "address",
          "name": "sender",
          "type": "address"
        },
        {
          "internalType": "uint256",
          "name": "tokenId",
          "type": "uint256"
        },
        {
          "internalType": "address",
          "name": "owner",
          "type": "address"
        }
      ],
      "name": "ERC721IncorrectOwner",
      "type": "error"
    },
    {
      "inputs": [
        {
          "internalType": "address",
          "name": "operator",
          "type": "address"
        },
        {
          "internalType": "uint256",
          "name": "tokenId",
          "type": "uint256"
        }
      ],
      "name": "ERC721InsufficientApproval",
      "type": "error"
    },
    {
      "inputs": [
        {
          "internalType": "address",
          "name": "approver",
          "type": "address"
        }
      ],
      "name": "ERC721InvalidApprover",
      "type": "error"
    },
    {
      "inputs": [
        {
          "internalType": "address",
          "name": "operator",
          "type": "address"
        }
      ],
      "name": "ERC721InvalidOperator",
      "type": "error"
    },
    {
      "inputs": [
        {
          "internalType": "address",
          "name": "owner",
          "type": "address"
        }
      ],
      "name": "ERC721InvalidOwner",
      "type": "error"
    },
    {
      "inputs": [
        {
          "internalType": "address",
          "name": "receiver",
          "type": "address"
        }
      ],
      "name": "ERC721InvalidReceiver",
      "type": "error"
    },
    {
      "inputs": [
        {
          "internalType": "address",
          "name": "sender",
          "type": "address"
        }
      ],
      "name": "ERC721InvalidSender",
      "type": "error"
    },
    {
      "inputs": [
        {
          "internalType": "uint256",
          "name": "tokenId",
          "type": "uint256"
        }
      ],
      "name": "ERC721NonexistentToken",
      "type": "error"
    },
    {
      "inputs": [
        {
          "internalType": "address",
          "name": "owner",
          "type": "address"
        }
      ],
      "name": "OwnableInvalidOwner",
      "type": "error"
    },
    {
      "inputs": [
        {
          "internalType": "address",
          "name": "account",
          "type": "address"
        }
      ],
      "name": "OwnableUnauthorizedAccount",
      "type": "error"
    },
    {
      "anonymous": false,
      "inputs": [
        {
          "indexed": true,
          "internalType": "address",
          "name": "owner",
          "type": "address"
        },
        {
          "indexed": true,
          "internalType": "address",
          "name": "approved",
          "type": "address"
        },
        {
          "indexed": true,
          "internalType": "uint256",
          "name": "tokenId",
          "type": "uint256"
        }
      ],
      "name": "Approval",
      "type": "event"
    },
    {
      "anonymous": false,
      "inputs": [
        {
          "indexed": true,
          "internalType": "address",
          "name": "owner",
          "type": "address"
        },
        {
          "indexed": true,
          "internalType": "address",
          "name": "operator",
          "type": "address"
        },
        {
          "indexed": false,
          "internalType": "bool",
          "name": "approved",
          "type": "bool"
        }
      ],
      "name": "ApprovalForAll",
      "type": "event"
    },
    {
      "anonymous": false,
      "inputs": [
        {
          "indexed": false,
          "internalType": "uint256",
          "name": "_fromTokenId",
          "type": "uint256"
        },
        {
          "indexed": false,
          "internalType": "uint256",
          "name": "_toTokenId",
          "type": "uint256"
        }
      ],
      "name": "BatchMetadataUpdate",
      "type": "event"
    },
    {
      "anonymous": false,
      "inputs": [
        {
          "indexed": false,
          "internalType": "uint256",
          "name": "_tokenId",
          "type": "uint256"
        }
      ],
      "name": "MetadataUpdate",
      "type": "event"
    },
    {
      "anonymous": false,
      "inputs": [
        {
          "indexed": true,
          "internalType": "address",
          "name": "to",
          "type": "address"
        },
        {
          "indexed": true,
          "internalType": "uint256",
          "name": "tokenId",
          "type": "uint256"
        },
        {
          "indexed": false,
          "internalType": "string",
          "name": "tokenURI",
          "type": "string"
        }
      ],
      "name": "NFTMinted",
      "type": "event"
    },
    {
      "anonymous": false,
      "inputs": [
        {
          "indexed": true,
          "internalType": "address",
          "name": "previousOwner",
          "type": "address"
        },
        {
          "indexed": true,
          "internalType": "address",
          "name": "newOwner",
          "type": "address"
        }
      ],
      "name": "OwnershipTransferred",
      "type": "event"
    },
    {
      "anonymous": false,
      "inputs": [
        {
          "indexed": true,
          "internalType": "address",
          "name": "from",
          "type": "address"
        },
        {
          "indexed": true,
          "internalType": "address",
          "name": "to",
          "type": "address"
        },
        {
          "indexed": true,
          "internalType": "uint256",
          "name": "tokenId",
          "type": "uint256"
        }
      ],
      "name": "Transfer",
      "type": "event"
    },
    {
      "inputs": [
        {
          "internalType": "address",
          "name": "to",
          "type": "address"
        },
        {
          "internalType": "uint256",
          "name": "tokenId",
          "type": "uint256"
        }
      ],
      "name": "approve",
      "outputs": [],
      "stateMutability": "nonpayable",
      "type": "function"
    },
    {
      "inputs": [
        {
          "internalType": "address",
          "name": "owner",
          "type": "address"
        }
      ],
      "name": "balanceOf",
      "outputs": [
        {
          "internalType": "uint256",
          "name": "",
          "type": "uint256"
        }
      ],
      "stateMutability": "view",
      "type": "function"
    },
    {
      "inputs": [
        {
          "internalType": "uint256",
          "name": "tokenId",
          "type": "uint256"
        }
      ],
      "name": "getApproved",
      "outputs": [
        {
          "internalType": "address",
          "name": "",
          "type": "address"
        }
      ],
      "stateMutability": "view",
      "type": "function"
    },
    {
      "inputs": [
        {
          "internalType": "address",
          "name": "owner",
          "type": "address"
        },
        {
          "internalType": "address",
          "name": "operator",
          "type": "address"
        }
      ],
      "name": "isApprovedForAll",
      "outputs": [
        {
          "internalType": "bool",
          "name": "",
          "type": "bool"
        }
      ],
      "stateMutability": "view",
      "type": "function"
    },
    {
      "inputs": [
        {
          "internalType": "address",
          "name": "to",
          "type": "address"
        },
        {
          "internalType": "string",
          "name": "tokenURI",
          "type": "string"
        }
      ],
      "name": "mint",
      "outputs": [
        {
          "internalType": "uint256",
          "name": "",
          "type": "uint256"
        }
      ],
      "stateMutability": "payable",
      "type": "function"
    },
    {
      "inputs": [],
      "name": "mintPrice",
      "outputs": [
        {
          "internalType": "uint256",
          "name": "",
          "type": "uint256"
        }
      ],
      "stateMutability": "view",
      "type": "function"
    },
    {
      "inputs": [],
      "name": "name",
      "outputs": [
        {
          "internalType": "string",
          "name": "",
          "type": "string"
        }
      ],
      "stateMutability": "view",
      "type": "function"
    },
    {
      "inputs": [],
      "name": "owner",
      "outputs": [
        {
          "internalType": "address",
          "name": "",
          "type": "address"
        }
      ],
      "stateMutability": "view",
      "type": "function"
    },
    {
      "inputs": [
        {
          "internalType": "uint256",
          "name": "tokenId",
          "type": "uint256"
        }
      ],
      "name": "ownerOf",
      "outputs": [
        {
          "internalType": "address",
          "name": "",
          "type": "address"
        }
      ],
      "stateMutability": "view",
      "type": "function"
    },
    {
      "inputs": [],
      "name": "renounceOwnership",
      "outputs": [],
      "stateMutability": "nonpayable",
      "type": "function"
    },
    {
      "inputs": [
        {
          "internalType": "address",
          "name": "from",
          "type": "address"
        },
        {
          "internalType": "address",
          "name": "to",
          "type": "address"
        },
        {
          "internalType": "uint256",
          "name": "tokenId",
          "type": "uint256"
        }
      ],
      "name": "safeTransferFrom",
      "outputs": [],
      "stateMutability": "nonpayable",
      "type": "function"
    },
    {
      "inputs": [
        {
          "internalType": "address",
          "name": "from",
          "type": "address"
        },
        {
          "internalType": "address",
          "name": "to",
          "type": "address"
        },
        {
          "internalType": "uint256",
          "name": "tokenId",
          "type": "uint256"
        },
        {
          "internalType": "bytes",
          "name": "data",
          "type": "bytes"
        }
      ],
      "name": "safeTransferFrom",
      "outputs": [],
      "stateMutability": "nonpayable",
      "type": "function"
    },
    {
      "inputs": [
        {
          "internalType": "address",
          "name": "operator",
          "type": "address"
        },
        {
          "internalType": "bool",
          "name": "approved",
          "type": "bool"
        }
      ],
      "name": "setApprovalForAll",
      "outputs": [],
      "stateMutability": "nonpayable",
      "type": "function"
    },
    {
      "inputs": [
        {
          "internalType": "uint256",
          "name": "_mintPrice",
          "type": "uint256"
        }
      ],
      "name": "setMintPrice",
      "outputs": [],
      "stateMutability": "nonpayable",
      "type": "function"
    },
    {
      "inputs": [
        {
          "internalType": "bytes4",
          "name": "interfaceId",
          "type": "bytes4"
        }
      ],
      "name": "supportsInterface",
      "outputs": [
        {
          "internalType": "bool",
          "name": "",
          "type": "bool"
        }
      ],
      "stateMutability": "view",
      "type": "function"
    },
    {
      "inputs": [],
      "name": "symbol",
      "outputs": [
        {
          "internalType": "string",
          "name": "",
          "type": "string"
        }
      ],
      "stateMutability": "view",
      "type": "function"
    },
    {
      "inputs": [
        {
          "internalType": "uint256",
          "name": "tokenId",
          "type": "uint256"
        }
      ],
      "name": "tokenURI",
      "outputs": [
        {
          "internalType": "string",
          "name": "",
          "type": "string"
        }
      ],
      "stateMutability": "view",
      "type": "function"
    },
    {
      "inputs": [],
      "name": "totalSupply",
      "outputs": [
        {
          "internalType": "uint256",
          "name": "",
          "type": "uint256"
        }
      ],
      "stateMutability": "view",
      "type": "function"
    },
    {
      "inputs": [
        {
          "internalType": "address",
          "name": "from",
          "type": "address"
        },
        {
          "internalType": "address",
          "name": "to",
          "type": "address"
        },
        {
          "internalType": "uint256",
          "name": "tokenId",
          "type": "uint256"
        }
      ],
      "name": "transferFrom",
      "outputs": [],
      "stateMutability": "nonpayable",
      "type": "function"
    },
    {
      "inputs": [
        {
          "internalType": "address",
          "name": "newOwner",
          "type": "address"
        }
      ],
      "name": "transferOwnership",
      "outputs": [],
      "stateMutability": "nonpayable",
      "type": "function"
    },
    {
      "inputs": [],
      "name": "withdraw",
      "outputs": [],
      "stateMutability": "nonpayable",
      "type": "function"
    }
  ],
  "bytecode": "0x6080604052662386f26fc100006009553480156200001c57600080fd5b50336040518060400160405280601581526020017f4d6f6e61644372757368204d61746368204361726400000000000000000000008152506040518060400160405280600481526020017f4d434d430000000000000000000000000000000000000000000000000000000081525081600090816200009b919062000485565b508060019081620000ad919062000485565b505050600073ffffffffffffffffffffffffffffffffffffffff168173ffffffffffffffffffffffffffffffffffffffff1603620001255760006040517f1e4fbdf70000000000000000000000000000000000000000000000000000000081526004016200011c9190620005b1565b60405180910390fd5b62000136816200014560201b60201c565b506000600881905550620005ce565b6000600760009054906101000a900473ffffffffffffffffffffffffffffffffffffffff16905081600760006101000a81548173ffffffffffffffffffffffffffffffffffffffff021916908373ffffffffffffffffffffffffffffffffffffffff1602179055508173ffffffffffffffffffffffffffffffffffffffff168173ffffffffffffffffffffffffffffffffffffffff167f8be0079c531659141344cd1fd0a4f28419497f9722a3daafe3b4186f6b6457e060405160405180910390a35050565b600081519050919050565b7f4e487b7100000000000000000000000000000000000000000000000000000000600052604160045260246000fd5b7f4e487b7100000000000000000000000000000000000000000000000000000000600052602260045260246000fd5b600060028204905060018216806200028d57607f821691505b602082108103620002a357620002a262000245565b5b50919050565b60008190508160005260206000209050919050565b60006020601f8301049050919050565b600082821b905092915050565b6000600883026200030d7fffffffffffffffffffffffffffffffffffffffffffffffffffffffffffffffff82620002ce565b620003198683620002ce565b95508019841693508086168417925050509392505050565b6000819050919050565b6000819050919050565b600062000366620003606200035a8462000331565b6200033b565b62000331565b9050919050565b6000819050919050565b620003828362000345565b6200039a62000391826200036d565b848454620002db565b825550505050565b600090565b620003b1620003a2565b620003be81848462000377565b505050565b5b81811015620003e657620003da600082620003a7565b600181019050620003c4565b5050565b601f8211156200043557620003ff81620002a9565b6200040a84620002be565b810160208510156200041a578190505b620004326200042985620002be565b830182620003c3565b50505b505050565b600082821c905092915050565b60006200045a600019846008026200043a565b1980831691505092915050565b600062000475838362000447565b9150826002028217905092915050565b62000490826200020b565b67ffffffffffffffff811115620004ac57620004ab62000216565b5b620004b8825462000274565b620004c5828285620003ea565b600060209050601f831160018114620004fd5760008415620004e8578287015190505b620004f4858262000467565b86555062000564565b601f1984166200050d86620002a9565b60005b82811015620005375784890151825560018201915060208501945060208101905062000510565b8683101562000557578489015162000553601f89168262000447565b8355505b6001600288020188555050505b505050505050565b600073ffffffffffffffffffffffffffffffffffffffff82169050919050565b600062000599826200056c565b9050919050565b620005ab816200058c565b82525050565b6000602082019050620005c86000830184620005a0565b92915050565b612b6b80620005de6000396000f3fe60806040526004361061012a5760003560e01c806370a08231116100ab578063b88d4fde1161006f578063b88d4fde146103cc578063c87b56dd146103f5578063d0def52114610432578063e985e9c514610462578063f2fde38b1461049f578063f4a0a528146104c85761012a565b806370a08231146102f9578063715018a6146103365780638da5cb5b1461034d57806395d89b4114610378578063a22cb465146103a35761012a565b806323b872dd116100f257806323b872dd146102285780633ccfd60b1461025157806342842e0e146102685780636352211e146102915780636817c76c146102ce5761012a565b806301ffc9a71461012f57806306fdde031461016c578063081812fc14610197578063095ea7b3146101d457806318160ddd146101fd575b600080fd5b34801561013b57600080fd5b5061015660048036038101906101519190611e39565b6104f1565b6040516101639190611e81565b60405180910390f35b34801561017857600080fd5b50610181610503565b60405161018e9190611f2c565b60405180910390f35b3480156101a357600080fd5b506101be60048036038101906101b99190611f84565b610595565b6040516101cb9190611ff2565b60405180910390f35b3480156101e057600080fd5b506101fb60048036038101906101f69190612039565b6105b1565b005b34801561020957600080fd5b506102126105c7565b60405161021f9190612088565b60405180910390f35b34801561023457600080fd5b5061024f600480360381019061024a91906120a3565b6105d1565b005b34801561025d57600080fd5b506102666106d3565b005b34801561027457600080fd5b5061028f600480360381019061028a91906120a3565b6107da565b005b34801561029d57600080fd5b506102b860048036038101906102b39190611f84565b6107fa565b6040516102c59190611ff2565b60405180910390f35b3480156102da57600080fd5b506102e361080c565b6040516102f09190612088565b60405180910390f35b34801561030557600080fd5b50610320600480360381019061031b91906120f6565b610812565b60405161032d9190612088565b60405180910390f35b34801561034257600080fd5b5061034b6108cc565b005b34801561035957600080fd5b506103626108e0565b60405161036f9190611ff2565b60405180910390f35b34801561038457600080fd5b5061038d61090a565b60405161039a9190611f2c565b60405180910390f35b3480156103af57600080fd5b506103ca60048036038101906103c5919061214f565b61099c565b005b3480156103d857600080fd5b506103f360048036038101906103ee91906122c4565b6109b2565b005b34801561040157600080fd5b5061041c60048036038101906104179190611f84565b6109d7565b6040516104299190611f2c565b60405180910390f35b61044c600480360381019061044791906123e8565b6109e9565b6040516104599190612088565b60405180910390f35b34801561046e57600080fd5b5061048960048036038101906104849190612444565b610abc565b6040516104969190611e81565b60405180910390f35b3480156104ab57600080fd5b506104c660048036038101906104c191906120f6565b610b50565b005b3480156104d457600080fd5b506104ef60048036038101906104ea9190611f84565b610bd6565b005b60006104fc82610be8565b9050919050565b606060008054610512906124b3565b80601f016020809104026020016040519081016040528092919081815260200182805461053e906124b3565b801561058b5780601f106105605761010080835404028352916020019161058b565b820191906000526020600020905b81548152906001019060200180831161056e57829003601f168201915b5050505050905090565b60006105a082610c49565b506105aa82610cd1565b9050919050565b6105c382826105be610d0e565b610d16565b5050565b6000600854905090565b600073ffffffffffffffffffffffffffffffffffffffff168273ffffffffffffffffffffffffffffffffffffffff16036106435760006040517f64a0ae9200000000000000000000000000000000000000000000000000000000815260040161063a9190611ff2565b60405180910390fd5b60006106578383610652610d0e565b610d28565b90508373ffffffffffffffffffffffffffffffffffffffff168173ffffffffffffffffffffffffffffffffffffffff16146106cd578382826040517f64283d7b0000000000000000000000000000000000000000000000000000000081526004016106c4939291906124e4565b60405180910390fd5b50505050565b6106db610f42565b600047905060008111610723576040517f08c379a000000000000000000000000000000000000000000000000000000000815260040161071a90612567565b60405180910390fd5b600061072d6108e0565b73ffffffffffffffffffffffffffffffffffffffff1682604051610750906125b8565b60006040518083038185875af1925050503d806000811461078d576040519150601f19603f3d011682016040523d82523d6000602084013e610792565b606091505b50509050806107d6576040517f08c379a00000000000000000000000000000000000000000000000000000000081526004016107cd90612619565b60405180910390fd5b5050565b6107f5838383604051806020016040528060008152506109b2565b505050565b600061080582610c49565b9050919050565b60095481565b60008073ffffffffffffffffffffffffffffffffffffffff168273ffffffffffffffffffffffffffffffffffffffff16036108855760006040517f89c62b6400000000000000000000000000000000000000000000000000000000815260040161087c9190611ff2565b60405180910390fd5b600360008373ffffffffffffffffffffffffffffffffffffffff1673ffffffffffffffffffffffffffffffffffffffff168152602001908152602001600020549050919050565b6108d4610f42565b6108de6000610fc9565b565b6000600760009054906101000a900473ffffffffffffffffffffffffffffffffffffffff16905090565b606060018054610919906124b3565b80601f0160208091040260200160405190810160405280929190818152602001828054610945906124b3565b80156109925780601f1061096757610100808354040283529160200191610992565b820191906000526020600020905b81548152906001019060200180831161097557829003601f168201915b5050505050905090565b6109ae6109a7610d0e565b838361108f565b5050565b6109bd8484846105d1565b6109d16109c8610d0e565b858585856111fe565b50505050565b60606109e2826113af565b9050919050565b6000600954341015610a30576040517f08c379a0000000000000000000000000000000000000000000000000000000008152600401610a2790612685565b60405180910390fd5b6000600854905060086000815480929190610a4a906126d4565b9190505550610a5984826114c2565b610a6381846114e0565b808473ffffffffffffffffffffffffffffffffffffffff167fd35bb95e09c04b219e35047ce7b7b300e3384264ef84a40456943dbc0fc17c1485604051610aaa9190611f2c565b60405180910390a38091505092915050565b6000600560008473ffffffffffffffffffffffffffffffffffffffff1673ffffffffffffffffffffffffffffffffffffffff16815260200190815260200160002060008373ffffffffffffffffffffffffffffffffffffffff1673ffffffffffffffffffffffffffffffffffffffff16815260200190815260200160002060009054906101000a900460ff16905092915050565b610b58610f42565b600073ffffffffffffffffffffffffffffffffffffffff168173ffffffffffffffffffffffffffffffffffffffff1603610bca5760006040517f1e4fbdf7000000000000000000000000000000000000000000000000000000008152600401610bc19190611ff2565b60405180910390fd5b610bd381610fc9565b50565b610bde610f42565b8060098190555050565b6000634906490660e01b7bffffffffffffffffffffffffffffffffffffffffffffffffffffffff1916827bffffffffffffffffffffffffffffffffffffffffffffffffffffffff19161480610c425750610c418261153c565b5b9050919050565b600080610c558361161e565b9050600073ffffffffffffffffffffffffffffffffffffffff168173ffffffffffffffffffffffffffffffffffffffff1603610cc857826040517f7e273289000000000000000000000000000000000000000000000000000000008152600401610cbf9190612088565b60405180910390fd5b80915050919050565b60006004600083815260200190815260200160002060009054906101000a900473ffffffffffffffffffffffffffffffffffffffff169050919050565b600033905090565b610d23838383600161165b565b505050565b600080610d348461161e565b9050600073ffffffffffffffffffffffffffffffffffffffff168373ffffffffffffffffffffffffffffffffffffffff1614610d7657610d75818486611820565b5b600073ffffffffffffffffffffffffffffffffffffffff168173ffffffffffffffffffffffffffffffffffffffff1614610e0757610db860008560008061165b565b6001600360008373ffffffffffffffffffffffffffffffffffffffff1673ffffffffffffffffffffffffffffffffffffffff168152602001908152602001600020600082825403925050819055505b600073ffffffffffffffffffffffffffffffffffffffff168573ffffffffffffffffffffffffffffffffffffffff1614610e8a576001600360008773ffffffffffffffffffffffffffffffffffffffff1673ffffffffffffffffffffffffffffffffffffffff168152602001908152602001600020600082825401925050819055505b846002600086815260200190815260200160002060006101000a81548173ffffffffffffffffffffffffffffffffffffffff021916908373ffffffffffffffffffffffffffffffffffffffff160217905550838573ffffffffffffffffffffffffffffffffffffffff168273ffffffffffffffffffffffffffffffffffffffff167fddf252ad1be2c89b69c2b068fc378daa952ba7f163c4a11628f55a4df523b3ef60405160405180910390a4809150509392505050565b610f4a610d0e565b73ffffffffffffffffffffffffffffffffffffffff16610f686108e0565b73ffffffffffffffffffffffffffffffffffffffff1614610fc757610f8b610d0e565b6040517f118cdaa7000000000000000000000000000000000000000000000000000000008152600401610fbe9190611ff2565b60405180910390fd5b565b6000600760009054906101000a900473ffffffffffffffffffffffffffffffffffffffff16905081600760006101000a81548173ffffffffffffffffffffffffffffffffffffffff021916908373ffffffffffffffffffffffffffffffffffffffff1602179055508173ffffffffffffffffffffffffffffffffffffffff168173ffffffffffffffffffffffffffffffffffffffff167f8be0079c531659141344cd1fd0a4f28419497f9722a3daafe3b4186f6b6457e060405160405180910390a35050565b600073ffffffffffffffffffffffffffffffffffffffff168273ffffffffffffffffffffffffffffffffffffffff160361110057816040517f5b08ba180000000000000000000000000000000000000000000000000000000081526004016110f79190611ff2565b60405180910390fd5b80600560008573ffffffffffffffffffffffffffffffffffffffff1673ffffffffffffffffffffffffffffffffffffffff16815260200190815260200160002060008473ffffffffffffffffffffffffffffffffffffffff1673ffffffffffffffffffffffffffffffffffffffff16815260200190815260200160002060006101000a81548160ff0219169083151502179055508173ffffffffffffffffffffffffffffffffffffffff168373ffffffffffffffffffffffffffffffffffffffff167f17307eab39ab6107e8899845ad3d59bd9653f200f220920489ca2b5937696c31836040516111f19190611e81565b60405180910390a3505050565b60008373ffffffffffffffffffffffffffffffffffffffff163b11156113a8578273ffffffffffffffffffffffffffffffffffffffff1663150b7a02868685856040518563ffffffff1660e01b815260040161125d9493929190612771565b6020604051808303816000875af192505050801561129957506040513d601f19601f8201168201806040525081019061129691906127d2565b60015b61131d573d80600081146112c9576040519150601f19603f3d011682016040523d82523d6000602084013e6112ce565b606091505b50600081510361131557836040517f64a0ae9200000000000000000000000000000000000000000000000000000000815260040161130c9190611ff2565b60405180910390fd5b805181602001fd5b63150b7a0260e01b7bffffffffffffffffffffffffffffffffffffffffffffffffffffffff1916817bffffffffffffffffffffffffffffffffffffffffffffffffffffffff1916146113a657836040517f64a0ae9200000000000000000000000000000000000000000000000000000000815260040161139d9190611ff2565b60405180910390fd5b505b5050505050565b60606113ba82610c49565b5060006006600084815260200190815260200160002080546113db906124b3565b80601f0160208091040260200160405190810160405280929190818152602001828054611407906124b3565b80156114545780601f1061142957610100808354040283529160200191611454565b820191906000526020600020905b81548152906001019060200180831161143757829003601f168201915b5050505050905060006114656118e4565b9050600081510361147a5781925050506114bd565b6000825111156114af57808260405160200161149792919061283b565b604051602081830303815290604052925050506114bd565b6114b8846118fb565b925050505b919050565b6114dc828260405180602001604052806000815250611964565b5050565b806006600084815260200190815260200160002090816115009190612a0b565b507ff8e1a15aba9398e019f0b49df1a4fde98ee17ae345cb5f6b5e2c27f5033e8ce7826040516115309190612088565b60405180910390a15050565b60007f80ac58cd000000000000000000000000000000000000000000000000000000007bffffffffffffffffffffffffffffffffffffffffffffffffffffffff1916827bffffffffffffffffffffffffffffffffffffffffffffffffffffffff1916148061160757507f5b5e139f000000000000000000000000000000000000000000000000000000007bffffffffffffffffffffffffffffffffffffffffffffffffffffffff1916827bffffffffffffffffffffffffffffffffffffffffffffffffffffffff1916145b80611617575061161682611988565b5b9050919050565b60006002600083815260200190815260200160002060009054906101000a900473ffffffffffffffffffffffffffffffffffffffff169050919050565b80806116945750600073ffffffffffffffffffffffffffffffffffffffff168273ffffffffffffffffffffffffffffffffffffffff1614155b156117c85760006116a484610c49565b9050600073ffffffffffffffffffffffffffffffffffffffff168373ffffffffffffffffffffffffffffffffffffffff161415801561170f57508273ffffffffffffffffffffffffffffffffffffffff168173ffffffffffffffffffffffffffffffffffffffff1614155b801561172257506117208184610abc565b155b1561176457826040517fa9fbf51f00000000000000000000000000000000000000000000000000000000815260040161175b9190611ff2565b60405180910390fd5b81156117c657838573ffffffffffffffffffffffffffffffffffffffff168273ffffffffffffffffffffffffffffffffffffffff167f8c5be1e5ebec7d5bd14f71427d1e84f3dd0314c0f7b2291e5b200ac8c7c3b92560405160405180910390a45b505b836004600085815260200190815260200160002060006101000a81548173ffffffffffffffffffffffffffffffffffffffff021916908373ffffffffffffffffffffffffffffffffffffffff16021790555050505050565b61182b8383836119f2565b6118df57600073ffffffffffffffffffffffffffffffffffffffff168373ffffffffffffffffffffffffffffffffffffffff16036118a057806040517f7e2732890000000000000000000000000000000000000000000000000000000081526004016118979190612088565b60405180910390fd5b81816040517f177e802f0000000000000000000000000000000000000000000000000000000081526004016118d6929190612add565b60405180910390fd5b505050565b606060405180602001604052806000815250905090565b606061190682610c49565b5060006119116118e4565b90506000815111611931576040518060200160405280600081525061195c565b8061193b84611ab3565b60405160200161194c92919061283b565b6040516020818303038152906040525b915050919050565b61196e8383611b81565b611983611979610d0e565b60008585856111fe565b505050565b60007f01ffc9a7000000000000000000000000000000000000000000000000000000007bffffffffffffffffffffffffffffffffffffffffffffffffffffffff1916827bffffffffffffffffffffffffffffffffffffffffffffffffffffffff1916149050919050565b60008073ffffffffffffffffffffffffffffffffffffffff168373ffffffffffffffffffffffffffffffffffffffff1614158015611aaa57508273ffffffffffffffffffffffffffffffffffffffff168473ffffffffffffffffffffffffffffffffffffffff161480611a6b5750611a6a8484610abc565b5b80611aa957508273ffffffffffffffffffffffffffffffffffffffff16611a9183610cd1565b73ffffffffffffffffffffffffffffffffffffffff16145b5b90509392505050565b606060006001611ac284611c7a565b01905060008167ffffffffffffffff811115611ae157611ae0612199565b5b6040519080825280601f01601f191660200182016040528015611b135781602001600182028036833780820191505090505b509050600082602001820190505b600115611b76578080600190039150507f3031323334353637383961626364656600000000000000000000000000000000600a86061a8153600a8581611b6a57611b69612b06565b5b04945060008503611b21575b819350505050919050565b600073ffffffffffffffffffffffffffffffffffffffff168273ffffffffffffffffffffffffffffffffffffffff1603611bf35760006040517f64a0ae92000000000000000000000000000000000000000000000000000000008152600401611bea9190611ff2565b60405180910390fd5b6000611c0183836000610d28565b9050600073ffffffffffffffffffffffffffffffffffffffff168173ffffffffffffffffffffffffffffffffffffffff1614611c755760006040517f73c6ac6e000000000000000000000000000000000000000000000000000000008152600401611c6c9190611ff2565b60405180910390fd5b505050565b600080600090507a184f03e93ff9f4daa797ed6e38ed64bf6a1f0100000000000000008310611cd8577a184f03e93ff9f4daa797ed6e38ed64bf6a1f0100000000000000008381611cce57611ccd612b06565b5b0492506040810190505b6d04ee2d6d415b85acef81000000008310611d15576d04ee2d6d415b85acef81000000008381611d0b57611d0a612b06565b5b0492506020810190505b662386f26fc100008310611d4457662386f26fc100008381611d3a57611d39612b06565b5b0492506010810190505b6305f5e1008310611d6d576305f5e1008381611d6357611d62612b06565b5b0492506008810190505b6127108310611d92576127108381611d8857611d87612b06565b5b0492506004810190505b60648310611db55760648381611dab57611daa612b06565b5b0492506002810190505b600a8310611dc4576001810190505b80915050919050565b6000604051905090565b600080fd5b600080fd5b60007fffffffff0000000000000000000000000000000000000000000000000000000082169050919050565b611e1681611de1565b8114611e2157600080fd5b50565b600081359050611e3381611e0d565b92915050565b600060208284031215611e4f57611e4e611dd7565b5b6000611e5d84828501611e24565b91505092915050565b60008115159050919050565b611e7b81611e66565b82525050565b6000602082019050611e966000830184611e72565b92915050565b600081519050919050565b600082825260208201905092915050565b60005b83811015611ed6578082015181840152602081019050611ebb565b60008484015250505050565b6000601f19601f8301169050919050565b6000611efe82611e9c565b611f088185611ea7565b9350611f18818560208601611eb8565b611f2181611ee2565b840191505092915050565b60006020820190508181036000830152611f468184611ef3565b905092915050565b6000819050919050565b611f6181611f4e565b8114611f6c57600080fd5b50565b600081359050611f7e81611f58565b92915050565b600060208284031215611f9a57611f99611dd7565b5b6000611fa884828501611f6f565b91505092915050565b600073ffffffffffffffffffffffffffffffffffffffff82169050919050565b6000611fdc82611fb1565b9050919050565b611fec81611fd1565b82525050565b60006020820190506120076000830184611fe3565b92915050565b61201681611fd1565b811461202157600080fd5b50565b6000813590506120338161200d565b92915050565b600080604083850312156120505761204f611dd7565b5b600061205e85828601612024565b925050602061206f85828601611f6f565b9150509250929050565b61208281611f4e565b82525050565b600060208201905061209d6000830184612079565b92915050565b6000806000606084860312156120bc576120bb611dd7565b5b60006120ca86828701612024565b93505060206120db86828701612024565b92505060406120ec86828701611f6f565b9150509250925092565b60006020828403121561210c5761210b611dd7565b5b600061211a84828501612024565b91505092915050565b61212c81611e66565b811461213757600080fd5b50565b60008135905061214981612123565b92915050565b6000806040838503121561216657612165611dd7565b5b600061217485828601612024565b92505060206121858582860161213a565b9150509250929050565b600080fd5b600080fd5b7f4e487b7100000000000000000000000000000000000000000000000000000000600052604160045260246000fd5b6121d182611ee2565b810181811067ffffffffffffffff821117156121f0576121ef612199565b5b80604052505050565b6000612203611dcd565b905061220f82826121c8565b919050565b600067ffffffffffffffff82111561222f5761222e612199565b5b61223882611ee2565b9050602081019050919050565b82818337600083830152505050565b600061226761226284612214565b6121f9565b90508281526020810184848401111561228357612282612194565b5b61228e848285612245565b509392505050565b600082601f8301126122ab576122aa61218f565b5b81356122bb848260208601612254565b91505092915050565b600080600080608085870312156122de576122dd611dd7565b5b60006122ec87828801612024565b94505060206122fd87828801612024565b935050604061230e87828801611f6f565b925050606085013567ffffffffffffffff81111561232f5761232e611ddc565b5b61233b87828801612296565b91505092959194509250565b600067ffffffffffffffff82111561236257612361612199565b5b61236b82611ee2565b9050602081019050919050565b600061238b61238684612347565b6121f9565b9050828152602081018484840111156123a7576123a6612194565b5b6123b2848285612245565b509392505050565b600082601f8301126123cf576123ce61218f565b5b81356123df848260208601612378565b91505092915050565b600080604083850312156123ff576123fe611dd7565b5b600061240d85828601612024565b925050602083013567ffffffffffffffff81111561242e5761242d611ddc565b5b61243a858286016123ba565b9150509250929050565b6000806040838503121561245b5761245a611dd7565b5b600061246985828601612024565b925050602061247a85828601612024565b9150509250929050565b7f4e487b7100000000000000000000000000000000000000000000000000000000600052602260045260246000fd5b600060028204905060018216806124cb57607f821691505b6020821081036124de576124dd612484565b5b50919050565b60006060820190506124f96000830186611fe3565b6125066020830185612079565b6125136040830184611fe3565b949350505050565b7f4e6f2066756e647320746f207769746864726177000000000000000000000000600082015250565b6000612551601483611ea7565b915061255c8261251b565b602082019050919050565b6000602082019050818103600083015261258081612544565b9050919050565b600081905092915050565b50565b60006125a2600083612587565b91506125ad82612592565b600082019050919050565b60006125c382612595565b9150819050919050565b7f5769746864726177616c206661696c6564000000000000000000000000000000600082015250565b6000612603601183611ea7565b915061260e826125cd565b602082019050919050565b60006020820190508181036000830152612632816125f6565b9050919050565b7f496e73756666696369656e74207061796d656e74000000000000000000000000600082015250565b600061266f601483611ea7565b915061267a82612639565b602082019050919050565b6000602082019050818103600083015261269e81612662565b9050919050565b7f4e487b7100000000000000000000000000000000000000000000000000000000600052601160045260246000fd5b60006126df82611f4e565b91507fffffffffffffffffffffffffffffffffffffffffffffffffffffffffffffffff8203612711576127106126a5565b5b600182019050919050565b600081519050919050565b600082825260208201905092915050565b60006127438261271c565b61274d8185612727565b935061275d818560208601611eb8565b61276681611ee2565b840191505092915050565b60006080820190506127866000830187611fe3565b6127936020830186611fe3565b6127a06040830185612079565b81810360608301526127b28184612738565b905095945050505050565b6000815190506127cc81611e0d565b92915050565b6000602082840312156127e8576127e7611dd7565b5b60006127f6848285016127bd565b91505092915050565b600081905092915050565b600061281582611e9c565b61281f81856127ff565b935061282f818560208601611eb8565b80840191505092915050565b6000612847828561280a565b9150612853828461280a565b91508190509392505050565b60008190508160005260206000209050919050565b60006020601f8301049050919050565b600082821b905092915050565b6000600883026128c17fffffffffffffffffffffffffffffffffffffffffffffffffffffffffffffffff82612884565b6128cb8683612884565b95508019841693508086168417925050509392505050565b6000819050919050565b60006129086129036128fe84611f4e565b6128e3565b611f4e565b9050919050565b6000819050919050565b612922836128ed565b61293661292e8261290f565b848454612891565b825550505050565b600090565b61294b61293e565b612956818484612919565b505050565b5b8181101561297a5761296f600082612943565b60018101905061295c565b5050565b601f8211156129bf576129908161285f565b61299984612874565b810160208510156129a8578190505b6129bc6129b485612874565b83018261295b565b50505b505050565b600082821c905092915050565b60006129e2600019846008026129c4565b1980831691505092915050565b60006129fb83836129d1565b9150826002028217905092915050565b612a1482611e9c565b67ffffffffffffffff811115612a2d57612a2c612199565b5b612a3782546124b3565b612a4282828561297e565b600060209050601f831160018114612a755760008415612a63578287015190505b612a6d85826129ef565b865550612ad5565b601f198416612a838661285f565b60005b82811015612aab57848901518255600182019150602085019450602081019050612a86565b86831015612ac85784890151612ac4601f8916826129d1565b8355505b6001600288020188555050505b505050505050565b6000604082019050612af26000830185611fe3565b612aff6020830184612079565b9392505050565b7f4e487b7100000000000000000000000000000000000000000000000000000000600052601260045260246000fdfea264697066735822122023f08ea715dfef3d16a98853a6d847b9b034e17b88631ea5b471be53f5a3967564736f6c63430008180033",
  "linkReferences": {},
  "deployedLinkReferences": {}
}