{
  "_format": "hh-sol-artifact-1",
  "contractName": "MonadCrushEscrow",
  "sourceName": "contracts/MonadCrushEscrow.sol",
  "abi": [
    {
      "inputs": [
        {
          "internalType": "address",
          "name": "_monTokenAddress",
          "type": "address"
        }
      ],
      "stateMutability": "nonpayable",
      "type": "constructor"
    },
    {
      "inputs": [
        {
          "internalType": "address",
          "name": "owner",
          "type": "address"
        }
      ],
      "name": "OwnableInvalidOwner",
      "type": "error"
    },
    {
      "inputs": [
        {
          "internalType": "address",
          "name": "account",
          "type": "address"
        }
      ],
      "name": "OwnableUnauthorizedAccount",
      "type": "error"
    },
    {
      "anonymous": false,
      "inputs": [
        {
          "indexed": true,
          "internalType": "bytes32",
          "name": "claimCodeHash",
          "type": "bytes32"
        },
        {
          "indexed": false,
          "internalType": "uint256",
          "name": "amount",
          "type": "uint256"
        },
        {
          "indexed": false,
          "internalType": "address",
          "name": "recipient",
          "type": "address"
        },
        {
          "indexed": false,
          "internalType": "address",
          "name": "sender",
          "type": "address"
        }
      ],
      "name": "ClaimCreated",
      "type": "event"
    },
    {
      "anonymous": false,
      "inputs": [
        {
          "indexed": true,
          "internalType": "bytes32",
          "name": "claimCodeHash",
          "type": "bytes32"
        },
        {
          "indexed": false,
          "internalType": "uint256",
          "name": "amount",
          "type": "uint256"
        },
        {
          "indexed": false,
          "internalType": "address",
          "name": "recipient",
          "type": "address"
        }
      ],
      "name": "Claimed",
      "type": "event"
    },
    {
      "anonymous": false,
      "inputs": [
        {
          "indexed": true,
          "internalType": "address",
          "name": "previousOwner",
          "type": "address"
        },
        {
          "indexed": true,
          "internalType": "address",
          "name": "newOwner",
          "type": "address"
        }
      ],
      "name": "OwnershipTransferred",
      "type": "event"
    },
    {
      "stateMutability": "payable",
      "type": "fallback"
    },
    {
      "inputs": [
        {
          "internalType": "bytes32",
          "name": "_claimCodeHash",
          "type": "bytes32"
        }
      ],
      "name": "claimTokens",
      "outputs": [],
      "stateMutability": "nonpayable",
      "type": "function"
    },
    {
      "inputs": [
        {
          "internalType": "bytes32",
          "name": "",
          "type": "bytes32"
        }
      ],
      "name": "claims",
      "outputs": [
        {
          "internalType": "uint256",
          "name": "amount",
          "type": "uint256"
        },
        {
          "internalType": "address",
          "name": "recipient",
          "type": "address"
        },
        {
          "internalType": "bool",
          "name": "claimed",
          "type": "bool"
        },
        {
          "internalType": "string",
          "name": "message",
          "type": "string"
        },
        {
          "internalType": "address",
          "name": "sender",
          "type": "address"
        }
      ],
      "stateMutability": "view",
      "type": "function"
    },
    {
      "inputs": [
        {
          "internalType": "bytes32",
          "name": "_claimCodeHash",
          "type": "bytes32"
        },
        {
          "internalType": "uint256",
          "name": "_amount",
          "type": "uint256"
        },
        {
          "internalType": "address",
          "name": "_recipient",
          "type": "address"
        },
        {
          "internalType": "string",
          "name": "_message",
          "type": "string"
        }
      ],
      "name": "createClaim",
      "outputs": [],
      "stateMutability": "payable",
      "type": "function"
    },
    {
      "inputs": [
        {
          "internalType": "bytes32",
          "name": "_claimCodeHash",
          "type": "bytes32"
        }
      ],
      "name": "getClaimInfo",
      "outputs": [
        {
          "internalType": "uint256",
          "name": "amount",
          "type": "uint256"
        },
        {
          "internalType": "address",
          "name": "recipient",
          "type": "address"
        },
        {
          "internalType": "bool",
          "name": "claimed",
          "type": "bool"
        },
        {
          "internalType": "string",
          "name": "message",
          "type": "string"
        },
        {
          "internalType": "address",
          "name": "sender",
          "type": "address"
        }
      ],
      "stateMutability": "view",
      "type": "function"
    },
    {
      "inputs": [],
      "name": "monToken",
      "outputs": [
        {
          "internalType": "contract IERC20",
          "name": "",
          "type": "address"
        }
      ],
      "stateMutability": "view",
      "type": "function"
    },
    {
      "inputs": [],
      "name": "owner",
      "outputs": [
        {
          "internalType": "address",
          "name": "",
          "type": "address"
        }
      ],
      "stateMutability": "view",
      "type": "function"
    },
    {
      "inputs": [],
      "name": "renounceOwnership",
      "outputs": [],
      "stateMutability": "nonpayable",
      "type": "function"
    },
    {
      "inputs": [
        {
          "internalType": "address",
          "name": "newOwner",
          "type": "address"
        }
      ],
      "name": "transferOwnership",
      "outputs": [],
      "stateMutability": "nonpayable",
      "type": "function"
    },
    {
      "inputs": [
        {
          "internalType": "address",
          "name": "_tokenAddress",
          "type": "address"
        }
      ],
      "name": "withdrawStuckTokens",
      "outputs": [],
      "stateMutability": "nonpayable",
      "type": "function"
    },
    {
      "stateMutability": "payable",
      "type": "receive"
    }
  ],
  "bytecode": "0x60806040523480156200001157600080fd5b5060405162001ac938038062001ac9833981810160405281019062000037919062000235565b33600073ffffffffffffffffffffffffffffffffffffffff168173ffffffffffffffffffffffffffffffffffffffff1603620000ad5760006040517f1e4fbdf7000000000000000000000000000000000000000000000000000000008152600401620000a4919062000278565b60405180910390fd5b620000be816200010760201b60201c565b5080600160006101000a81548173ffffffffffffffffffffffffffffffffffffffff021916908373ffffffffffffffffffffffffffffffffffffffff1602179055505062000295565b60008060009054906101000a900473ffffffffffffffffffffffffffffffffffffffff169050816000806101000a81548173ffffffffffffffffffffffffffffffffffffffff021916908373ffffffffffffffffffffffffffffffffffffffff1602179055508173ffffffffffffffffffffffffffffffffffffffff168173ffffffffffffffffffffffffffffffffffffffff167f8be0079c531659141344cd1fd0a4f28419497f9722a3daafe3b4186f6b6457e060405160405180910390a35050565b600080fd5b600073ffffffffffffffffffffffffffffffffffffffff82169050919050565b6000620001fd82620001d0565b9050919050565b6200020f81620001f0565b81146200021b57600080fd5b50565b6000815190506200022f8162000204565b92915050565b6000602082840312156200024e576200024d620001cb565b5b60006200025e848285016200021e565b91505092915050565b6200027281620001f0565b82525050565b60006020820190506200028f600083018462000267565b92915050565b61182480620002a56000396000f3fe60806040526004361061008a5760003560e01c8063c4d1061711610059578063c4d1061714610129578063c7c4743d1461016a578063cb96372814610186578063eff0f592146101af578063f2fde38b146101f057610091565b806363eb9f90146100935780636facd1c0146100be578063715018a6146100e75780638da5cb5b146100fe57610091565b3661009157005b005b34801561009f57600080fd5b506100a8610219565b6040516100b59190610d54565b60405180910390f35b3480156100ca57600080fd5b506100e560048036038101906100e09190610db9565b61023f565b005b3480156100f357600080fd5b506100fc61047c565b005b34801561010a57600080fd5b50610113610490565b6040516101209190610e07565b60405180910390f35b34801561013557600080fd5b50610150600480360381019061014b9190610db9565b6104b9565b604051610161959493929190610ee6565b60405180910390f35b610184600480360381019061017f91906110cd565b6105dd565b005b34801561019257600080fd5b506101ad60048036038101906101a89190611150565b6108e1565b005b3480156101bb57600080fd5b506101d660048036038101906101d19190610db9565b6109f1565b6040516101e7959493929190610ee6565b60405180910390f35b3480156101fc57600080fd5b5061021760048036038101906102129190611150565b610afc565b005b600160009054906101000a900473ffffffffffffffffffffffffffffffffffffffff1681565b60006002600083815260200190815260200160002090503373ffffffffffffffffffffffffffffffffffffffff168160010160009054906101000a900473ffffffffffffffffffffffffffffffffffffffff1673ffffffffffffffffffffffffffffffffffffffff16146102e8576040517f08c379a00000000000000000000000000000000000000000000000000000000081526004016102df906111ef565b60405180910390fd5b8060010160149054906101000a900460ff161561033a576040517f08c379a00000000000000000000000000000000000000000000000000000000081526004016103319061125b565b60405180910390fd5b60018160010160146101000a81548160ff021916908315150217905550600160009054906101000a900473ffffffffffffffffffffffffffffffffffffffff1673ffffffffffffffffffffffffffffffffffffffff1663a9059cbb3383600001546040518363ffffffff1660e01b81526004016103b892919061127b565b6020604051808303816000875af11580156103d7573d6000803e3d6000fd5b505050506040513d601f19601f820116820180604052508101906103fb91906112d0565b61043a576040517f08c379a000000000000000000000000000000000000000000000000000000000815260040161043190611349565b60405180910390fd5b817f23d83d3d20efa56cfd43e260715a4f245c47853c0881b05929fc6acbd06390eb826000015433604051610470929190611369565b60405180910390a25050565b610484610b82565b61048e6000610c09565b565b60008060009054906101000a900473ffffffffffffffffffffffffffffffffffffffff16905090565b6000806000606060008060026000888152602001908152602001600020905080600001548160010160009054906101000a900473ffffffffffffffffffffffffffffffffffffffff168260010160149054906101000a900460ff16836002018460030160009054906101000a900473ffffffffffffffffffffffffffffffffffffffff16818054610549906113c1565b80601f0160208091040260200160405190810160405280929190818152602001828054610575906113c1565b80156105c25780601f10610597576101008083540402835291602001916105c2565b820191906000526020600020905b8154815290600101906020018083116105a557829003601f168201915b50505050509150955095509550955095505091939590929450565b6002600085815260200190815260200160002060010160149054906101000a900460ff1615610641576040517f08c379a00000000000000000000000000000000000000000000000000000000081526004016106389061143e565b60405180910390fd5b60008311610684576040517f08c379a000000000000000000000000000000000000000000000000000000000815260040161067b906114aa565b60405180910390fd5b600160009054906101000a900473ffffffffffffffffffffffffffffffffffffffff1673ffffffffffffffffffffffffffffffffffffffff166323b872dd3330866040518463ffffffff1660e01b81526004016106e3939291906114ca565b6020604051808303816000875af1158015610702573d6000803e3d6000fd5b505050506040513d601f19601f8201168201806040525081019061072691906112d0565b610765576040517f08c379a000000000000000000000000000000000000000000000000000000000815260040161075c90611349565b60405180910390fd5b6040518060a001604052808481526020018373ffffffffffffffffffffffffffffffffffffffff1681526020016000151581526020018281526020013373ffffffffffffffffffffffffffffffffffffffff16815250600260008681526020019081526020016000206000820151816000015560208201518160010160006101000a81548173ffffffffffffffffffffffffffffffffffffffff021916908373ffffffffffffffffffffffffffffffffffffffff16021790555060408201518160010160146101000a81548160ff021916908315150217905550606082015181600201908161085491906116a3565b5060808201518160030160006101000a81548173ffffffffffffffffffffffffffffffffffffffff021916908373ffffffffffffffffffffffffffffffffffffffff160217905550905050837f34de840acb0025df9dc7e6ef5a381d0f39870edbd59eaf65b4b70a5c5b1957a58484336040516108d393929190611775565b60405180910390a250505050565b6108e9610b82565b60008190508073ffffffffffffffffffffffffffffffffffffffff1663a9059cbb610912610490565b8373ffffffffffffffffffffffffffffffffffffffff166370a08231306040518263ffffffff1660e01b815260040161094b9190610e07565b602060405180830381865afa158015610968573d6000803e3d6000fd5b505050506040513d601f19601f8201168201806040525081019061098c91906117c1565b6040518363ffffffff1660e01b81526004016109a992919061127b565b6020604051808303816000875af11580156109c8573d6000803e3d6000fd5b505050506040513d601f19601f820116820180604052508101906109ec91906112d0565b505050565b60026020528060005260406000206000915090508060000154908060010160009054906101000a900473ffffffffffffffffffffffffffffffffffffffff16908060010160149054906101000a900460ff1690806002018054610a53906113c1565b80601f0160208091040260200160405190810160405280929190818152602001828054610a7f906113c1565b8015610acc5780601f10610aa157610100808354040283529160200191610acc565b820191906000526020600020905b815481529060010190602001808311610aaf57829003601f168201915b5050505050908060030160009054906101000a900473ffffffffffffffffffffffffffffffffffffffff16905085565b610b04610b82565b600073ffffffffffffffffffffffffffffffffffffffff168173ffffffffffffffffffffffffffffffffffffffff1603610b765760006040517f1e4fbdf7000000000000000000000000000000000000000000000000000000008152600401610b6d9190610e07565b60405180910390fd5b610b7f81610c09565b50565b610b8a610ccd565b73ffffffffffffffffffffffffffffffffffffffff16610ba8610490565b73ffffffffffffffffffffffffffffffffffffffff1614610c0757610bcb610ccd565b6040517f118cdaa7000000000000000000000000000000000000000000000000000000008152600401610bfe9190610e07565b60405180910390fd5b565b60008060009054906101000a900473ffffffffffffffffffffffffffffffffffffffff169050816000806101000a81548173ffffffffffffffffffffffffffffffffffffffff021916908373ffffffffffffffffffffffffffffffffffffffff1602179055508173ffffffffffffffffffffffffffffffffffffffff168173ffffffffffffffffffffffffffffffffffffffff167f8be0079c531659141344cd1fd0a4f28419497f9722a3daafe3b4186f6b6457e060405160405180910390a35050565b600033905090565b600073ffffffffffffffffffffffffffffffffffffffff82169050919050565b6000819050919050565b6000610d1a610d15610d1084610cd5565b610cf5565b610cd5565b9050919050565b6000610d2c82610cff565b9050919050565b6000610d3e82610d21565b9050919050565b610d4e81610d33565b82525050565b6000602082019050610d696000830184610d45565b92915050565b6000604051905090565b600080fd5b600080fd5b6000819050919050565b610d9681610d83565b8114610da157600080fd5b50565b600081359050610db381610d8d565b92915050565b600060208284031215610dcf57610dce610d79565b5b6000610ddd84828501610da4565b91505092915050565b6000610df182610cd5565b9050919050565b610e0181610de6565b82525050565b6000602082019050610e1c6000830184610df8565b92915050565b6000819050919050565b610e3581610e22565b82525050565b60008115159050919050565b610e5081610e3b565b82525050565b600081519050919050565b600082825260208201905092915050565b60005b83811015610e90578082015181840152602081019050610e75565b60008484015250505050565b6000601f19601f8301169050919050565b6000610eb882610e56565b610ec28185610e61565b9350610ed2818560208601610e72565b610edb81610e9c565b840191505092915050565b600060a082019050610efb6000830188610e2c565b610f086020830187610df8565b610f156040830186610e47565b8181036060830152610f278185610ead565b9050610f366080830184610df8565b9695505050505050565b610f4981610e22565b8114610f5457600080fd5b50565b600081359050610f6681610f40565b92915050565b610f7581610de6565b8114610f8057600080fd5b50565b600081359050610f9281610f6c565b92915050565b600080fd5b600080fd5b7f4e487b7100000000000000000000000000000000000000000000000000000000600052604160045260246000fd5b610fda82610e9c565b810181811067ffffffffffffffff82111715610ff957610ff8610fa2565b5b80604052505050565b600061100c610d6f565b90506110188282610fd1565b919050565b600067ffffffffffffffff82111561103857611037610fa2565b5b61104182610e9c565b9050602081019050919050565b82818337600083830152505050565b600061107061106b8461101d565b611002565b90508281526020810184848401111561108c5761108b610f9d565b5b61109784828561104e565b509392505050565b600082601f8301126110b4576110b3610f98565b5b81356110c484826020860161105d565b91505092915050565b600080600080608085870312156110e7576110e6610d79565b5b60006110f587828801610da4565b945050602061110687828801610f57565b935050604061111787828801610f83565b925050606085013567ffffffffffffffff81111561113857611137610d7e565b5b6111448782880161109f565b91505092959194509250565b60006020828403121561116657611165610d79565b5b600061117484828501610f83565b91505092915050565b7f4f6e6c7920696e74656e64656420726563697069656e742063616e20636c616960008201527f6d00000000000000000000000000000000000000000000000000000000000000602082015250565b60006111d9602183610e61565b91506111e48261117d565b604082019050919050565b60006020820190508181036000830152611208816111cc565b9050919050565b7f546f6b656e7320616c726561647920636c61696d656400000000000000000000600082015250565b6000611245601683610e61565b91506112508261120f565b602082019050919050565b6000602082019050818103600083015261127481611238565b9050919050565b60006040820190506112906000830185610df8565b61129d6020830184610e2c565b9392505050565b6112ad81610e3b565b81146112b857600080fd5b50565b6000815190506112ca816112a4565b92915050565b6000602082840312156112e6576112e5610d79565b5b60006112f4848285016112bb565b91505092915050565b7f546f6b656e207472616e73666572206661696c65640000000000000000000000600082015250565b6000611333601583610e61565b915061133e826112fd565b602082019050919050565b6000602082019050818103600083015261136281611326565b9050919050565b600060408201905061137e6000830185610e2c565b61138b6020830184610df8565b9392505050565b7f4e487b7100000000000000000000000000000000000000000000000000000000600052602260045260246000fd5b600060028204905060018216806113d957607f821691505b6020821081036113ec576113eb611392565b5b50919050565b7f436c61696d20616c726561647920657869737473000000000000000000000000600082015250565b6000611428601483610e61565b9150611433826113f2565b602082019050919050565b600060208201905081810360008301526114578161141b565b9050919050565b7f416d6f756e74206d7573742062652067726561746572207468616e2030000000600082015250565b6000611494601d83610e61565b915061149f8261145e565b602082019050919050565b600060208201905081810360008301526114c381611487565b9050919050565b60006060820190506114df6000830186610df8565b6114ec6020830185610df8565b6114f96040830184610e2c565b949350505050565b60008190508160005260206000209050919050565b60006020601f8301049050919050565b600082821b905092915050565b6000600883026115637fffffffffffffffffffffffffffffffffffffffffffffffffffffffffffffffff82611526565b61156d8683611526565b95508019841693508086168417925050509392505050565b60006115a061159b61159684610e22565b610cf5565b610e22565b9050919050565b6000819050919050565b6115ba83611585565b6115ce6115c6826115a7565b848454611533565b825550505050565b600090565b6115e36115d6565b6115ee8184846115b1565b505050565b5b81811015611612576116076000826115db565b6001810190506115f4565b5050565b601f8211156116575761162881611501565b61163184611516565b81016020851015611640578190505b61165461164c85611516565b8301826115f3565b50505b505050565b600082821c905092915050565b600061167a6000198460080261165c565b1980831691505092915050565b60006116938383611669565b9150826002028217905092915050565b6116ac82610e56565b67ffffffffffffffff8111156116c5576116c4610fa2565b5b6116cf82546113c1565b6116da828285611616565b600060209050601f83116001811461170d57600084156116fb578287015190505b6117058582611687565b86555061176d565b601f19841661171b86611501565b60005b828110156117435784890151825560018201915060208501945060208101905061171e565b86831015611760578489015161175c601f891682611669565b8355505b6001600288020188555050505b505050505050565b600060608201905061178a6000830186610e2c565b6117976020830185610df8565b6117a46040830184610df8565b949350505050565b6000815190506117bb81610f40565b92915050565b6000602082840312156117d7576117d6610d79565b5b60006117e5848285016117ac565b9150509291505056fea2646970667358221220a891841f16dedc1a40779b7e9c63e6f34790e4474b5d8820ec332bfc0edbbe6864736f6c63430008140033",
  "linkReferences": {},
  "deployedLinkReferences": {}
}